:10000000CDC0E7C013C1E5C0E4C0E3C0E2C0E1C0B9
:10001000E0C0DFC0DEC0DDC0DCC0DBC0DAC00A008B
:10002000000000000306A2001400030057494E55CB
:1000300053420000000000000000000084000400A3
:1000400007002A004400650076006900630065002F
:1000500049006E0074006500720066006100630074
:10006000650047005500490044007300000050003F
:100070007B0041004300300043003700440044004F
:1000800031002D0037003000340042002D003400D4
:100090004400360035002D00390043003300440091
:1000A0002D00310034004400380036003200440096
:1000B000340045003300340035007D0000000000AE
:1000C000190301646967696973702E706F737463D3
:1000D0006F6769746F2E6F7267050F40000307101A
:1000E00002000000001C100500DF60DDD88945C754
:1000F0004C9CD2659D9E648A9F00000306A2004D21
:10010000001810050038B60834A909A0478BFDA0D7
:10011000768815B6650001570112011002FF000034
:1001200008C016DC050100010203010A001C100DC5
:10013000080604020200017F003F0015000A0004C7
:100140000001000000000009021200010100A032BD
:100150000904000000FF000000100344006900676C
:100160000069004900530050002E036400690067D5
:100170000069006900730070002E0070006F00734A
:1001800000740063006F006700690074006F002E48
:10019000006F0072006700040309040011241FBEF1
:1001A000CFE5D2E0DEBFCDBF10E0A0E6B0E0EEE8E4
:1001B000F1E102C005900D92A437B107D9F720E014
:1001C000A4E7B0E001C01D92A23CB207E1F7FED364
:1001D000DCC716CFA82FB92F80E090E041E050EAAD
:1001E000609530E009C02D9182279795879510F092
:1001F00084279527305EC8F36F5FA8F30895EADF80
:100200008D939D930895A6E088279927AA9569F074
:100210000197E1F3B399FCCFB39BFECF81E099271F
:10022000A6B3019611F0A871D9F70895CF93CFB76F
:10023000CF93C395B39BE9F7B39B0BC0B39B09C0A6
:10024000B39B07C0B39B05C0B39B03C0B39B01C066
:10025000D3C00F92DF93C091A500DD27C455DF4FB7
:10026000012EB39B03C0DF910F90E6CF2F930F9326
:100270001F934F932FEF4F6F06B303FB20F95F934C
:100280003F9350E03BE065C016B30126502953FD73
:10029000C89556B3012703FB25F92F7306B3B1F0B8
:1002A0005027102713FB26F906B22230F0F000C0C9
:1002B00016B3012703FB27F90126502906B2243083
:1002C000E8F54F77206816B30000F6CF50274F7D32
:1002D000206206B2102F000000C006B3002650298D
:1002E000102713FB26F906B2E2CF4F7B06B320643A
:1002F00000C0DACF01265029187106B269F14E7F8D
:100300002160012F16B328C0002650294D7F06B268
:100310002260102F29C0012650294B7F06B224608D
:10032000012F2DC016B301265029477F28600000F9
:1003300006B22EC04F7E06B3206130C0422706B3FE
:10034000499300265029102706B24FEF13FB20F9DE
:10035000297F16B379F2187159F10126502906B296
:10036000012703FB21F9237F06B371F200265029F0
:100370003150D0F006B2102713FB22F9277E16B3B6
:1003800051F201265029012703FB06B223F92F7CE5
:1003900049F2000006B3102713FB24F90026502968
:1003A00006B22F7939F270CF10E21ABF002717C0BA
:1003B0003B503195C31BD04010E21ABF0881033C6B
:1003C000F9F00B34E9F02091A2001981110F1213FA
:1003D000EDCF093651F10D3211F0013E39F700939E
:1003E000AA003F915F914F911F910F912F91DF9143
:1003F0000F90CAB7C5FD1DCFCF91CFBFCF91189534
:100400002091AA00222369F31091A800112321F55D
:10041000343022F13093A8002093A4001091A5005D
:100420003BE0311B3093A50019C00091A8000130BA
:100430009CF40AE53091730034FD11C00093730001
:10044000C7E9D0E010C0052710E000C021C0052793
:1004500010E0C89508BB14C03AE501C032ED032E88
:10046000C0E0D0E032E017B31861C39A08B317BBFD
:1004700058E120E84FEF20FF052708BB2795179587
:100480001C3F28F700004552B0F720FF05272795AD
:1004900008BB17951C3FB8F629913A9561F7077E7E
:1004A0001091A900110F08BBC250D04011F0109359
:1004B000A20010E21ABF086017B3177E402F477ED4
:1004C00054E05A95F1F708BB17BB48BB8ACFFC0133
:1004D00083818F3041F489ED90E09093A700809361
:1004E000A60080E4089580E00895EF92FF920F93B4
:1004F0001F93CF93DF93F894E1B685DE8453994040
:1005000097FF03C0919581959109EC010FEF80E170
:10051000F82E11B7100F812F8E2587FD11C011BF46
:1005200072DE8453994097FF03C09195819591099C
:100530008C179D072CF4FA94E12EEC01F110E9CF11
:10054000E1BE0E5F033019F77894DF91CF911F91D0
:100550000F91FF90EF900895CF93DF93EC01898185
:10056000813051F48091830005D3109277008A8105
:10057000817012D380E03AC0823011F445D3FACFB3
:10058000833091F48A814ED3809385008B814AD346
:10059000809386008C8146D3809387008D8142D3DF
:1005A0008093880084E022C0843011F0873039F5D0
:1005B0009091770091110EC04A815B81052E000C4D
:1005C000660B770B40937F0050938000609381000F
:1005D000709382002E813F8130937E0020937D00B6
:1005E000843059F482E0809384008FEF25E830E076
:1005F0003093A7002093A600F7C083E0F4CF8530A6
:1006000029F44DD38093850081E0F0CF8630A9F5A1
:100610008091770081110EC08A819B81092E000C88
:10062000AA0BBB0B80937F0090938000A093810066
:10063000B09382002C813D81832F8F7080937A004C
:10064000832F90E044E0880F991F4A95E1F78827AF
:100650009F70820F911D90937C0080937B0030FFF0
:1006600004C090937900809378008E819F8190934D
:100670007E0080937D0081E0B6CF883001F58091C7
:10068000770081110EC08A819B81092E000CAA0B74
:10069000BB0B80937F0090938000A0938100B09368
:1006A000820010927C0010927B0010927A008E8162
:1006B0009F8190937E0080937D0084E094CF893069
:1006C00081F481E0809377008A819B81AC81BD8138
:1006D00080937F0090938000A0938100B09382006C
:1006E00049CF8A3031F48A8180938300109285004B
:1006F0008BCF8F3781F41092850081E09091960026
:10070000911101C080E0806880938600109287007C
:100710001092880047CF803409F03EC084E4809373
:10072000850089E48093860081E08093870085E0DE
:100730008093880081E090919600911101C080E043
:100740008093890081B780938A0089E0F0E0E0E03F
:1007500080935700E491E0938B00E3E0F0E0809316
:100760005700E491E0938C00E2E0F0E080935700C2
:10077000E491E0938D00E1E0F0E0809357008491F4
:1007800080938E00809174009091750090938F00FB
:10079000809390008CE02ACF813421F481E0809313
:1007A0007600E8CE823459F486B38093850087B30F
:1007B0008093860088B38093870083E017CF8735C6
:1007C000B1F48C819D81029709F0D4CE8A81813069
:1007D00009F0D0CE80EC90E09093A7008093A60023
:1007E00080E48093A30089E1DF91CF9108958D3457
:1007F00009F0C0CE8C819D81079709F0BBCE8EE1B8
:1008000090E09093A7008093A60080E48093A300DB
:1008100082EAEACFEF92FF921F93CF93DF93162FD6
:100820002091840022502230C0F5EC017C01E60EBC
:10083000F11CEC16FD0659F4183010F410928400E7
:10084000812FDF91CF911F91FF90EF9008956091DC
:100850007F007091800080918100909182002091B2
:1008600084002230B9F464D2888380917F00909113
:100870008000A0918100B09182000196A11DB11D60
:1008800080937F0090938000A0938100B0938200BA
:100890002196CFCFCB01F8D2E7CF1FEFD1CFEF9288
:1008A000FF921F93CF93DF9320918400213079F43E
:1008B000EC017C01E60EF11C10E0CE15DF0559F4C9
:1008C000812FDF91CF911F91FF90EF9008952430F9
:1008D00079F31FEFF5CF488180917F0090918000E0
:1008E000A0918100B091820020918400213009F014
:1008F0006AC020917B0030917C00232B09F040C01E
:1009000021E0BC01CD0139D280917D0090917E0023
:10091000019790937E0080937D00892BE1F4609194
:100920007F007091800080918100909182001092F0
:10093000840020917A0021FF0DC0409178005091F1
:10094000790020917B0030917C004217530711F011
:1009500048815CD211E080917F0090918000A0914D
:100960008100B09182000196A11DB11D80937F008E
:1009700090938000A0938100B093820021969DCF38
:1009800020E0BC01CD01F9D18091780090917900EF
:1009900001979093790080937800892B09F0B4CF68
:1009A00060917F0070918000809181009091820021
:1009B00048812CD280917B0090917C0090937900AB
:1009C00080937800A1CF642F6CD29ECF14BE0FB657
:1009D000F894A89581B5886181BD11BC0FBE89E0EE
:1009E000E3E0F0E08093570084918095881F88278A
:1009F000881F80939600CED007D180E190E09AD3F3
:100A00006B017C012FEFC216D206E206F20609F056
:100A100037C0C1B6D12CF12CE12C81E083BF88E135
:100A200081BD80EC81BD80E401B407FEFDCF91B5AE
:100A3000906891BDB701A60193E0440F551F661F52
:100A4000771F9A95D1F72DE1F694E794D794C79440
:100A50002A95D1F7C42AD52AE62AF72A92B7C926B9
:100A6000815011F70FB6F894A89581B5886181BDC2
:100A700011BC0FBE13BEB701A60180E190E05FD3A9
:100A8000E2E6F0E02CE130E0B701A601022E04C05E
:100A900076956795579547950A94D2F74F70842FAE
:100AA00090E04A3008F05CC0C09681939193245046
:100AB00031092C3F6FEF360739F780E096E1FC01F2
:100AC00044919C012F5F3F4F423109F04BC0F90127
:100AD0004491413009F046C0379645915491403DCC
:100AE000564109F03FC0FC013A9645915491433577
:100AF000574009F037C0FC013C9625913491922F64
:100B0000832F90937400809375000FD3BB9A8AEF64
:100B1000ECE1F0E13197F1F700C000008150C1F73E
:100B2000BB987894D7D1809176008823D9F38CE153
:100B300090E10197F1F700C00000809176008F5F8F
:100B400080937600833370F35FD0F894BB9A88E18A
:100B500098E00FB6F894A89581BD0FBE91BDFFCF68
:100B6000C796A3CFC901213F3F4109F0A8CF90E02C
:100B700080E0C7CF8E3008F080E0E82FF0E0EE0F85
:100B8000FF1FE55DFE4F85919491909393008093B4
:100B90009200089580E0EECF20919600222391F1FB
:100BA00091E0811190E0892F80939500222321F01C
:100BB000811102C0BD98C59888B3887F88BB87B370
:100BC000866087BBB898809195008823B1F0C5985E
:100BD000BD9A87E295E00197F1F700C0000080918F
:100BE00095008111C59A87E295E00197F1F700C061
:100BF0000000809195008111C59880E18DB9109217
:100C00009100089580E0D0CF1DB887B3887F87BB5F
:100C100088B3887F88BB80919600882311F0BD98A7
:100C2000C598089520919200309193008FB980E487
:100C30008EB94BE12115310519F0C9010197F1F782
:100C40004DB9769BF7CF2115310519F0C9010197F0
:100C5000F1F78FB10895CF92DF92EF92FF926B017F
:100C60007C0181E1F694E794D794C7948A95D1F7F3
:100C7000809191008C1571F0C09291008DE4D2DFCB
:100C800080E0D0DF8C2DCEDF80E0FF90EF90DF9012
:100C9000CF90C8CFFF90EF90DF90CF900895CF9383
:100CA000DF93C1E2C15021F481E0DF91CF9108953B
:100CB0008CEAB8DF83E5B6DF80E0B4DFD82F80E0D0
:100CC000B1DFD33599F1809195008823D9F087E27F
:100CD00095E00197F1F700C0000080919500811127
:100CE000C59A87E295E00197F1F700C00000809176
:100CF00095008111C59887E295E00197F1F700C052
:100D00000000D0CFC29A80919200909193000097FA
:100D100011F00197F1F7C2988091920090919300A1
:100D2000009709F4BFCF0197F1F7BCCF80E0BDCFAA
:100D3000CF92DF92EF92FF926B017C018CDF8C2DC2
:100D4000880F880F880F887080626CDFD701C6011A
:100D500029E0B695A795979587952A95D1F762DFF3
:100D6000D701C601B695A795979587955BDF80E07B
:100D7000FF90EF90DF90CF9055CFCF92DF92EF9220
:100D8000FF92CF93DF936B017C01C42FD22F63DFDF
:100D90008C2D880F880F880F8870806443DFD701FF
:100DA000C60129E0B695A795979587952A95D1F71D
:100DB00039DFD701C601B695A7959795879532DF9C
:100DC0008C2F30DFD11108C080E0DF91CF91FF90F0
:100DD000EF90DF90CF900895CF37B1F487E59DE491
:100DE0000197F1F700C00000EFCFC701B601A0DF07
:100DF0008F3751F787E295E00197F1F700C00000C7
:100E0000C15099F781E0E1CFCFE1FACFCF92DF92E5
:100E1000EF92FF92CF936B017C01C42F1CDF8CE417
:100E200001DFD701C60129E0B695A795979587956B
:100E30002A95D1F7F7DED701C601B695A795979504
:100E40008795F0DE80E0EEDECF3FE1F487E59DE4BC
:100E50000197F1F700C0000080E00EC0C701B601A5
:100E600067DF8F3FC9F787E295E00197F1F700C090
:100E70000000C15099F781E0CF91FF90EF90DF9093
:100E8000CF900895CFE1F5CFCF93DF93EC0180EAC7
:100E9000C9DE8D2FC7DE8C2FC5DE80E0DF91CF91BC
:100EA000C1CE1F93CF93DF93D82F192FC62F80EC7D
:100EB000B9DE812FB7DE8D2FB5DE8C2FB3DE8FEA42
:100EC0009AE90197F1F700C0000080E0DF91CF912F
:100ED0001F910895CF93DF936091A800635067FD41
:100EE0002BC08091A500CCE0D0E0C81BD109C4552F
:100EF000DF4F8091A4008D3209F0DBC06830D1F45F
:100F000083EC809397008AE5809373001092A3008E
:100F10009881907609F457C0CE011EDB982F8F3F41
:100F200009F060C0888187FD9E8180E88093A300DE
:100F3000909372001092A8008091730084FF2BC0E0
:100F4000C0917200CF3F39F16C2FC93008F068E0D2
:100F50008C2F861B809372008091970098E88927D8
:100F600080939700CC2359F02091A30027FFB3C0B2
:100F700088E990E04FDCC82F893008F0D1C06C2F91
:100F800088E990E03CD9CC5FCC3019F08FEF8093AA
:100F90007200C093730084E196B3987131F481506C
:100FA000D9F71092A9001092A200C1E08111C0E00F
:100FB00090919400C91721F0811197DAC0939400A1
:100FC000DF91CF9108952A811092A000898181112B
:100FD00012C01092A10020EA30E092E03093A70006
:100FE0002093A6008F818111A3CF8E81891708F0ED
:100FF0009FCF982F9DCF853029F42093A90020EA18
:1010000030E0ECCF863009F043C08B81813059F459
:1010100089E191E09093A7008093A60090E482E19B
:101020009093A3007BCF823019F487E491E0F2CF54
:10103000833051F5211109C087E991E09093A70011
:101040008093A60090E484E0EBCF213049F489E658
:1010500091E09093A7008093A60090E48EE2E0CF09
:10106000223049F489E591E09093A7008093A6008F
:1010700090E480E1D5CF233039F420E630E030939E
:10108000A7002093A600CBCFCE0121DA90E4C8CFF1
:10109000883059F0893019F42093AB00B0CF91E03B
:1010A0008A3009F4ACCF90E0AACF2BEA30E091E08F
:1010B00095CF8091A30087FF3DCFCE01F0DB8F3F1E
:1010C00021F48EE18093730035CF882309F432CF69
:1010D000109272002FCF8091A6009091A70026FF5A
:1010E00016C0A8E9B0E0FC01262F34913D9331965B
:1010F0002150D9F72FEF260F30E02F5F3F4F820F9F
:10110000931F9093A7008093A600C62F38CFDC01D1
:10111000E8E9F0E0262F3D9131932150E1F7EACF45
:101120008FEF80937200CEE134CFAC9A8BB78062A0
:101130008BBF0895A6E1B0E044E050E00AC0242F40
:1011400017D0252F15D000C012D0272F11C0DC01D9
:10115000CB01FC01E199FECF06C0FFBBEEBBE09ADC
:1011600031960DB20D9241505040B8F70895262F98
:10117000E199FECF1CBA9FBB8EBB2DBB0FB6F89476
:0E118000E29AE19A0FBE01960895F894FFCF0F
:10118E00120300000000000000000000000000003C
:04119E000000FF5AF4
:00000001FF
